20251203-22:06:33.913968000 : 8=FIX.4.2|9=65|35=A|49=TESTCLIENT|56=EXCHANGE|34=1|52=20251203-21:56:10|98=0|108=20|10=062|
20251203-22:28:18.256387000 : 8=FIX.4.2|9=65|35=A|49=TESTCLIENT|56=EXCHANGE|34=1|52=20251203-21:56:10|98=0|108=20|10=062|
20251203-22:31:28.028184000 : 8=FIX.4.2|9=65|35=A|49=TESTCLIENT|56=EXCHANGE|34=1|52=20251203-21:56:10|98=0|108=20|10=062|
20251203-22:33:07.924601000 : 8=FIX.4.2|9=65|35=A|49=TESTCLIENT|56=EXCHANGE|34=1|52=20251203-21:56:10|98=0|108=20|10=062|
20251203-22:39:53.712613000 : 8=FIX.4.2|9=65|35=A|49=TESTCLIENT|56=EXCHANGE|34=1|52=20251203-21:56:10|98=0|108=20|10=062|
20251203-22:41:56.719972000 : 8=FIX.4.2|9=69|35=A|49=TESTCLIENT|56=EXCHANGE|34=1|52=20251203-22:41:56|98=0|108=20|10=121|
20251203-22:41:56.720106000 : 8=FIX.4.2|9=73|35=A|34=1|49=EXCHANGE|52=20251203-22:41:56.720|56=TESTCLIENT|98=0|108=20|10=059|
20251203-22:42:06.485001000 : 8=FIX.4.2|9=69|35=A|49=TESTCLIENT|56=EXCHANGE|34=1|52=20251203-22:42:06|98=0|108=20|10=117|
20251203-22:42:06.485241000 : 8=FIX.4.2|9=110|35=5|34=2|49=EXCHANGE|52=20251203-22:42:06.485|56=TESTCLIENT|58=MsgSeqNum too low, expecting 2 but received 1|10=219|
20251203-22:42:07.439671000 : 8=FIX.4.2|9=69|35=A|49=TESTCLIENT|56=EXCHANGE|34=1|52=20251203-22:42:07|98=0|108=20|10=118|
20251203-22:42:07.439915000 : 8=FIX.4.2|9=110|35=5|34=3|49=EXCHANGE|52=20251203-22:42:07.439|56=TESTCLIENT|58=MsgSeqNum too low, expecting 2 but received 1|10=220|
20251203-22:42:08.487155000 : 8=FIX.4.2|9=69|35=A|49=TESTCLIENT|56=EXCHANGE|34=1|52=20251203-22:42:08|98=0|108=20|10=119|
20251203-22:42:08.487252000 : 8=FIX.4.2|9=110|35=5|34=4|49=EXCHANGE|52=20251203-22:42:08.487|56=TESTCLIENT|58=MsgSeqNum too low, expecting 2 but received 1|10=225|
20251203-22:42:17.376522000 : 8=FIX.4.2|9=69|35=A|49=TESTCLIENT|56=EXCHANGE|34=1|52=20251203-22:42:17|98=0|108=20|10=119|
20251203-22:42:17.376712000 : 8=FIX.4.2|9=110|35=5|34=5|49=EXCHANGE|52=20251203-22:42:17.376|56=TESTCLIENT|58=MsgSeqNum too low, expecting 2 but received 1|10=223|
20251203-22:42:18.384783000 : 8=FIX.4.2|9=69|35=A|49=TESTCLIENT|56=EXCHANGE|34=1|52=20251203-22:42:18|98=0|108=20|10=120|
20251203-22:42:18.384960000 : 8=FIX.4.2|9=110|35=5|34=6|49=EXCHANGE|52=20251203-22:42:18.384|56=TESTCLIENT|58=MsgSeqNum too low, expecting 2 but received 1|10=224|
20251203-22:42:19.136301000 : 8=FIX.4.2|9=69|35=A|49=TESTCLIENT|56=EXCHANGE|34=1|52=20251203-22:42:19|98=0|108=20|10=121|
20251203-22:42:19.136432000 : 8=FIX.4.2|9=110|35=5|34=7|49=EXCHANGE|52=20251203-22:42:19.136|56=TESTCLIENT|58=MsgSeqNum too low, expecting 2 but received 1|10=221|
20251203-22:42:20.258716000 : 8=FIX.4.2|9=69|35=A|49=TESTCLIENT|56=EXCHANGE|34=1|52=20251203-22:42:20|98=0|108=20|10=113|
20251203-22:42:20.258816000 : 8=FIX.4.2|9=110|35=5|34=8|49=EXCHANGE|52=20251203-22:42:20.258|56=TESTCLIENT|58=MsgSeqNum too low, expecting 2 but received 1|10=219|
20251203-22:42:21.244202000 : 8=FIX.4.2|9=69|35=A|49=TESTCLIENT|56=EXCHANGE|34=1|52=20251203-22:42:21|98=0|108=20|10=114|
20251203-22:42:21.244306000 : 8=FIX.4.2|9=110|35=5|34=9|49=EXCHANGE|52=20251203-22:42:21.244|56=TESTCLIENT|58=MsgSeqNum too low, expecting 2 but received 1|10=216|
20251203-22:42:21.992362000 : 8=FIX.4.2|9=69|35=A|49=TESTCLIENT|56=EXCHANGE|34=1|52=20251203-22:42:21|98=0|108=20|10=114|
20251203-22:42:21.992503000 : 8=FIX.4.2|9=111|35=5|34=10|49=EXCHANGE|52=20251203-22:42:21.992|56=TESTCLIENT|58=MsgSeqNum too low, expecting 2 but received 1|10=011|
20251203-22:42:22.821153000 : 8=FIX.4.2|9=69|35=A|49=TESTCLIENT|56=EXCHANGE|34=1|52=20251203-22:42:22|98=0|108=20|10=115|
20251203-22:42:22.821253000 : 8=FIX.4.2|9=111|35=5|34=11|49=EXCHANGE|52=20251203-22:42:22.821|56=TESTCLIENT|58=MsgSeqNum too low, expecting 2 but received 1|10=004|
20251203-22:42:23.368139000 : 8=FIX.4.2|9=69|35=A|49=TESTCLIENT|56=EXCHANGE|34=1|52=20251203-22:42:23|98=0|108=20|10=116|
20251203-22:42:23.368301000 : 8=FIX.4.2|9=111|35=5|34=12|49=EXCHANGE|52=20251203-22:42:23.368|56=TESTCLIENT|58=MsgSeqNum too low, expecting 2 but received 1|10=012|
20251203-22:42:23.872012000 : 8=FIX.4.2|9=69|35=A|49=TESTCLIENT|56=EXCHANGE|34=1|52=20251203-22:42:23|98=0|108=20|10=116|
20251203-22:42:23.872166000 : 8=FIX.4.2|9=111|35=5|34=13|49=EXCHANGE|52=20251203-22:42:23.872|56=TESTCLIENT|58=MsgSeqNum too low, expecting 2 but received 1|10=013|
20251203-22:42:24.322659000 : 8=FIX.4.2|9=69|35=A|49=TESTCLIENT|56=EXCHANGE|34=1|52=20251203-22:42:24|98=0|108=20|10=117|
20251203-22:42:24.322833000 : 8=FIX.4.2|9=111|35=5|34=14|49=EXCHANGE|52=20251203-22:42:24.322|56=TESTCLIENT|58=MsgSeqNum too low, expecting 2 but received 1|10=005|
20251203-22:46:09.171919000 : 8=FIX.4.2|9=69|35=A|49=TESTCLIENT|56=EXCHANGE|34=1|52=20251203-22:46:09|98=0|108=20|10=124|
20251203-22:46:09.172203000 : 8=FIX.4.2|9=111|35=5|34=15|49=EXCHANGE|52=20251203-22:46:09.172|56=TESTCLIENT|58=MsgSeqNum too low, expecting 2 but received 1|10=016|
20251203-22:46:10.571124000 : 8=FIX.4.2|9=69|35=A|49=TESTCLIENT|56=EXCHANGE|34=1|52=20251203-22:46:10|98=0|108=20|10=116|
20251203-22:46:10.571266000 : 8=FIX.4.2|9=111|35=5|34=16|49=EXCHANGE|52=20251203-22:46:10.571|56=TESTCLIENT|58=MsgSeqNum too low, expecting 2 but received 1|10=012|
20251203-22:46:12.195635000 : 8=FIX.4.2|9=69|35=A|49=TESTCLIENT|56=EXCHANGE|34=1|52=20251203-22:46:12|98=0|108=20|10=118|
20251203-22:46:12.195782000 : 8=FIX.4.2|9=111|35=5|34=17|49=EXCHANGE|52=20251203-22:46:12.195|56=TESTCLIENT|58=MsgSeqNum too low, expecting 2 but received 1|10=017|
20251203-22:46:56.450277000 : 8=FIX.4.2|9=69|35=A|49=TESTCLIENT|56=EXCHANGE|34=1|52=20251203-22:46:56|98=0|108=20|10=126|
20251203-22:46:56.452076000 : 8=FIX.4.2|9=73|35=A|34=1|49=EXCHANGE|52=20251203-22:46:56.452|56=TESTCLIENT|98=0|108=20|10=066|
