20251203-21:56:04.700513000 : 8=FIX.4.2|9=65|35=A|49=TESTCLIENT|56=EXCHANGE|34=1|52=20251203-21:56:04.695|98=0|108=20|10=128|
20251203-21:56:10.349659000 : 8=FIX.4.2|9=65|35=A|49=TESTCLIENT|56=EXCHANGE|34=1|52=20251203-21:56:10.348|98=0|108=20|10=128|
20251203-21:57:02.208264000 : 8=FIX.4.2|9=65|35=A|49=TESTCLIENT|56=EXCHANGE|34=1|52=20251203-21:56:10|98=0|108=20|10=062|
20251203-21:58:44.948762000 : 8=FIX.4.2|9=65|35=A|49=TESTCLIENT|56=EXCHANGE|34=1|52=20251203-21:56:10|98=0|108=20|10=062|
20251203-21:58:45.959304000 : 8=FIX.4.2|9=65|35=A|49=TESTCLIENT|56=EXCHANGE|34=1|52=20251203-21:56:10|98=0|108=20|10=062|
20251203-22:06:28.516156000 : 8=FIX.4.2|9=65|35=A|49=TESTCLIENT|56=EXCHANGE|34=1|52=20251203-21:56:10|98=0|108=20|10=062|
