8=FIX.4.2|9=73|35=A|34=1|49=EXCHANGE|52=20251203-22:41:56.720|56=TESTCLIENT|98=0|108=20|10=059|8=FIX.4.2|9=110|35=5|34=2|49=EXCHANGE|52=20251203-22:42:06.485|56=TESTCLIENT|58=MsgSeqNum too low, expecting 2 but received 1|10=219|8=FIX.4.2|9=110|35=5|34=3|49=EXCHANGE|52=20251203-22:42:07.439|56=TESTCLIENT|58=MsgSeqNum too low, expecting 2 but received 1|10=220|8=FIX.4.2|9=110|35=5|34=4|49=EXCHANGE|52=20251203-22:42:08.487|56=TESTCLIENT|58=MsgSeqNum too low, expecting 2 but received 1|10=225|8=FIX.4.2|9=110|35=5|34=5|49=EXCHANGE|52=20251203-22:42:17.376|56=TESTCLIENT|58=MsgSeqNum too low, expecting 2 but received 1|10=223|8=FIX.4.2|9=110|35=5|34=6|49=EXCHANGE|52=20251203-22:42:18.384|56=TESTCLIENT|58=MsgSeqNum too low, expecting 2 but received 1|10=224|8=FIX.4.2|9=110|35=5|34=7|49=EXCHANGE|52=20251203-22:42:19.136|56=TESTCLIENT|58=MsgSeqNum too low, expecting 2 but received 1|10=221|8=FIX.4.2|9=110|35=5|34=8|49=EXCHANGE|52=20251203-22:42:20.258|56=TESTCLIENT|58=MsgSeqNum too low, expecting 2 but received 1|10=219|8=FIX.4.2|9=110|35=5|34=9|49=EXCHANGE|52=20251203-22:42:21.244|56=TESTCLIENT|58=MsgSeqNum too low, expecting 2 but received 1|10=216|8=FIX.4.2|9=111|35=5|34=10|49=EXCHANGE|52=20251203-22:42:21.992|56=TESTCLIENT|58=MsgSeqNum too low, expecting 2 but received 1|10=011|8=FIX.4.2|9=111|35=5|34=11|49=EXCHANGE|52=20251203-22:42:22.821|56=TESTCLIENT|58=MsgSeqNum too low, expecting 2 but received 1|10=004|8=FIX.4.2|9=111|35=5|34=12|49=EXCHANGE|52=20251203-22:42:23.368|56=TESTCLIENT|58=MsgSeqNum too low, expecting 2 but received 1|10=012|8=FIX.4.2|9=111|35=5|34=13|49=EXCHANGE|52=20251203-22:42:23.872|56=TESTCLIENT|58=MsgSeqNum too low, expecting 2 but received 1|10=013|8=FIX.4.2|9=111|35=5|34=14|49=EXCHANGE|52=20251203-22:42:24.322|56=TESTCLIENT|58=MsgSeqNum too low, expecting 2 but received 1|10=005|