8=FIX.4.2|9=73|35=A|34=1|49=EXCHANGE|52=20251203-22:46:56.452|56=TESTCLIENT|98=0|108=20|10=066|